{
  "contractName": "NFT",
  "abi": [
    {
      "inputs": [
        {
          "internalType": "string",
          "name": "name",
          "type": "string"
        },
        {
          "internalType": "string",
          "name": "symbol",
          "type": "string"
        }
      ],
      "stateMutability": "nonpayable",
      "type": "constructor"
    },
    {
      "inputs": [
        {
          "internalType": "address",
          "name": "sender",
          "type": "address"
        },
        {
          "internalType": "uint256",
          "name": "tokenId",
          "type": "uint256"
        },
        {
          "internalType": "address",
          "name": "owner",
          "type": "address"
        }
      ],
      "name": "ERC721IncorrectOwner",
      "type": "error"
    },
    {
      "inputs": [
        {
          "internalType": "address",
          "name": "operator",
          "type": "address"
        },
        {
          "internalType": "uint256",
          "name": "tokenId",
          "type": "uint256"
        }
      ],
      "name": "ERC721InsufficientApproval",
      "type": "error"
    },
    {
      "inputs": [
        {
          "internalType": "address",
          "name": "approver",
          "type": "address"
        }
      ],
      "name": "ERC721InvalidApprover",
      "type": "error"
    },
    {
      "inputs": [
        {
          "internalType": "address",
          "name": "operator",
          "type": "address"
        }
      ],
      "name": "ERC721InvalidOperator",
      "type": "error"
    },
    {
      "inputs": [
        {
          "internalType": "address",
          "name": "owner",
          "type": "address"
        }
      ],
      "name": "ERC721InvalidOwner",
      "type": "error"
    },
    {
      "inputs": [
        {
          "internalType": "address",
          "name": "receiver",
          "type": "address"
        }
      ],
      "name": "ERC721InvalidReceiver",
      "type": "error"
    },
    {
      "inputs": [
        {
          "internalType": "address",
          "name": "sender",
          "type": "address"
        }
      ],
      "name": "ERC721InvalidSender",
      "type": "error"
    },
    {
      "inputs": [
        {
          "internalType": "uint256",
          "name": "tokenId",
          "type": "uint256"
        }
      ],
      "name": "ERC721NonexistentToken",
      "type": "error"
    },
    {
      "inputs": [
        {
          "internalType": "address",
          "name": "owner",
          "type": "address"
        }
      ],
      "name": "OwnableInvalidOwner",
      "type": "error"
    },
    {
      "inputs": [
        {
          "internalType": "address",
          "name": "account",
          "type": "address"
        }
      ],
      "name": "OwnableUnauthorizedAccount",
      "type": "error"
    },
    {
      "anonymous": false,
      "inputs": [
        {
          "indexed": true,
          "internalType": "address",
          "name": "owner",
          "type": "address"
        },
        {
          "indexed": true,
          "internalType": "address",
          "name": "approved",
          "type": "address"
        },
        {
          "indexed": true,
          "internalType": "uint256",
          "name": "tokenId",
          "type": "uint256"
        }
      ],
      "name": "Approval",
      "type": "event"
    },
    {
      "anonymous": false,
      "inputs": [
        {
          "indexed": true,
          "internalType": "address",
          "name": "owner",
          "type": "address"
        },
        {
          "indexed": true,
          "internalType": "address",
          "name": "operator",
          "type": "address"
        },
        {
          "indexed": false,
          "internalType": "bool",
          "name": "approved",
          "type": "bool"
        }
      ],
      "name": "ApprovalForAll",
      "type": "event"
    },
    {
      "anonymous": false,
      "inputs": [
        {
          "indexed": false,
          "internalType": "uint256",
          "name": "_fromTokenId",
          "type": "uint256"
        },
        {
          "indexed": false,
          "internalType": "uint256",
          "name": "_toTokenId",
          "type": "uint256"
        }
      ],
      "name": "BatchMetadataUpdate",
      "type": "event"
    },
    {
      "anonymous": false,
      "inputs": [
        {
          "indexed": false,
          "internalType": "uint256",
          "name": "_tokenId",
          "type": "uint256"
        }
      ],
      "name": "MetadataUpdate",
      "type": "event"
    },
    {
      "anonymous": false,
      "inputs": [
        {
          "indexed": true,
          "internalType": "address",
          "name": "to",
          "type": "address"
        },
        {
          "indexed": true,
          "internalType": "uint256",
          "name": "tokenId",
          "type": "uint256"
        },
        {
          "indexed": false,
          "internalType": "string",
          "name": "tokenURI",
          "type": "string"
        }
      ],
      "name": "NFTMinted",
      "type": "event"
    },
    {
      "anonymous": false,
      "inputs": [
        {
          "indexed": true,
          "internalType": "address",
          "name": "previousOwner",
          "type": "address"
        },
        {
          "indexed": true,
          "internalType": "address",
          "name": "newOwner",
          "type": "address"
        }
      ],
      "name": "OwnershipTransferred",
      "type": "event"
    },
    {
      "anonymous": false,
      "inputs": [
        {
          "indexed": true,
          "internalType": "address",
          "name": "from",
          "type": "address"
        },
        {
          "indexed": true,
          "internalType": "address",
          "name": "to",
          "type": "address"
        },
        {
          "indexed": true,
          "internalType": "uint256",
          "name": "tokenId",
          "type": "uint256"
        }
      ],
      "name": "Transfer",
      "type": "event"
    },
    {
      "inputs": [
        {
          "internalType": "address",
          "name": "to",
          "type": "address"
        },
        {
          "internalType": "uint256",
          "name": "tokenId",
          "type": "uint256"
        }
      ],
      "name": "approve",
      "outputs": [],
      "stateMutability": "nonpayable",
      "type": "function"
    },
    {
      "inputs": [
        {
          "internalType": "address",
          "name": "owner",
          "type": "address"
        }
      ],
      "name": "balanceOf",
      "outputs": [
        {
          "internalType": "uint256",
          "name": "",
          "type": "uint256"
        }
      ],
      "stateMutability": "view",
      "type": "function",
      "constant": true
    },
    {
      "inputs": [
        {
          "internalType": "uint256",
          "name": "tokenId",
          "type": "uint256"
        }
      ],
      "name": "getApproved",
      "outputs": [
        {
          "internalType": "address",
          "name": "",
          "type": "address"
        }
      ],
      "stateMutability": "view",
      "type": "function",
      "constant": true
    },
    {
      "inputs": [
        {
          "internalType": "address",
          "name": "owner",
          "type": "address"
        },
        {
          "internalType": "address",
          "name": "operator",
          "type": "address"
        }
      ],
      "name": "isApprovedForAll",
      "outputs": [
        {
          "internalType": "bool",
          "name": "",
          "type": "bool"
        }
      ],
      "stateMutability": "view",
      "type": "function",
      "constant": true
    },
    {
      "inputs": [],
      "name": "name",
      "outputs": [
        {
          "internalType": "string",
          "name": "",
          "type": "string"
        }
      ],
      "stateMutability": "view",
      "type": "function",
      "constant": true
    },
    {
      "inputs": [],
      "name": "owner",
      "outputs": [
        {
          "internalType": "address",
          "name": "",
          "type": "address"
        }
      ],
      "stateMutability": "view",
      "type": "function",
      "constant": true
    },
    {
      "inputs": [
        {
          "internalType": "uint256",
          "name": "tokenId",
          "type": "uint256"
        }
      ],
      "name": "ownerOf",
      "outputs": [
        {
          "internalType": "address",
          "name": "",
          "type": "address"
        }
      ],
      "stateMutability": "view",
      "type": "function",
      "constant": true
    },
    {
      "inputs": [],
      "name": "renounceOwnership",
      "outputs": [],
      "stateMutability": "nonpayable",
      "type": "function"
    },
    {
      "inputs": [
        {
          "internalType": "address",
          "name": "from",
          "type": "address"
        },
        {
          "internalType": "address",
          "name": "to",
          "type": "address"
        },
        {
          "internalType": "uint256",
          "name": "tokenId",
          "type": "uint256"
        }
      ],
      "name": "safeTransferFrom",
      "outputs": [],
      "stateMutability": "nonpayable",
      "type": "function"
    },
    {
      "inputs": [
        {
          "internalType": "address",
          "name": "from",
          "type": "address"
        },
        {
          "internalType": "address",
          "name": "to",
          "type": "address"
        },
        {
          "internalType": "uint256",
          "name": "tokenId",
          "type": "uint256"
        },
        {
          "internalType": "bytes",
          "name": "data",
          "type": "bytes"
        }
      ],
      "name": "safeTransferFrom",
      "outputs": [],
      "stateMutability": "nonpayable",
      "type": "function"
    },
    {
      "inputs": [
        {
          "internalType": "address",
          "name": "operator",
          "type": "address"
        },
        {
          "internalType": "bool",
          "name": "approved",
          "type": "bool"
        }
      ],
      "name": "setApprovalForAll",
      "outputs": [],
      "stateMutability": "nonpayable",
      "type": "function"
    },
    {
      "inputs": [],
      "name": "symbol",
      "outputs": [
        {
          "internalType": "string",
          "name": "",
          "type": "string"
        }
      ],
      "stateMutability": "view",
      "type": "function",
      "constant": true
    },
    {
      "inputs": [
        {
          "internalType": "address",
          "name": "from",
          "type": "address"
        },
        {
          "internalType": "address",
          "name": "to",
          "type": "address"
        },
        {
          "internalType": "uint256",
          "name": "tokenId",
          "type": "uint256"
        }
      ],
      "name": "transferFrom",
      "outputs": [],
      "stateMutability": "nonpayable",
      "type": "function"
    },
    {
      "inputs": [
        {
          "internalType": "address",
          "name": "newOwner",
          "type": "address"
        }
      ],
      "name": "transferOwnership",
      "outputs": [],
      "stateMutability": "nonpayable",
      "type": "function"
    },
    {
      "inputs": [
        {
          "internalType": "address",
          "name": "to",
          "type": "address"
        },
        {
          "internalType": "string",
          "name": "uri",
          "type": "string"
        }
      ],
      "name": "mintTo",
      "outputs": [],
      "stateMutability": "nonpayable",
      "type": "function"
    },
    {
      "inputs": [
        {
          "internalType": "address[]",
          "name": "recipients",
          "type": "address[]"
        },
        {
          "internalType": "string[]",
          "name": "uris",
          "type": "string[]"
        }
      ],
      "name": "batchMintTo",
      "outputs": [],
      "stateMutability": "nonpayable",
      "type": "function"
    },
    {
      "inputs": [
        {
          "internalType": "address",
          "name": "to",
          "type": "address"
        },
        {
          "internalType": "uint256",
          "name": "quantity",
          "type": "uint256"
        }
      ],
      "name": "mintMultipleTo",
      "outputs": [],
      "stateMutability": "nonpayable",
      "type": "function"
    },
    {
      "inputs": [
        {
          "internalType": "uint256",
          "name": "tokenId",
          "type": "uint256"
        }
      ],
      "name": "tokenURI",
      "outputs": [
        {
          "internalType": "string",
          "name": "",
          "type": "string"
        }
      ],
      "stateMutability": "view",
      "type": "function",
      "constant": true
    },
    {
      "inputs": [
        {
          "internalType": "bytes4",
          "name": "interfaceId",
          "type": "bytes4"
        }
      ],
      "name": "supportsInterface",
      "outputs": [
        {
          "internalType": "bool",
          "name": "",
          "type": "bool"
        }
      ],
      "stateMutability": "view",
      "type": "function",
      "constant": true
    }
  ],
  "bytecode": "0x60806040523480156200001157600080fd5b5060405162001cf738038062001cf78339810160408190526200003491620001b6565b3382826000620000458382620002af565b506001620000548282620002af565b5050506001600160a01b0381166200008657604051631e4fbdf760e01b81526000600482015260240160405180910390fd5b62000091816200009f565b50506000600855506200037b565b600780546001600160a01b038381166001600160a01b0319831681179093556040519116919082907f8be0079c531659141344cd1fd0a4f28419497f9722a3daafe3b4186f6b6457e090600090a35050565b634e487b7160e01b600052604160045260246000fd5b600082601f8301126200011957600080fd5b81516001600160401b0380821115620001365762000136620000f1565b604051601f8301601f19908116603f01168101908282118183101715620001615762000161620000f1565b816040528381526020925086838588010111156200017e57600080fd5b600091505b83821015620001a2578582018301518183018401529082019062000183565b600093810190920192909252949350505050565b60008060408385031215620001ca57600080fd5b82516001600160401b0380821115620001e257600080fd5b620001f08683870162000107565b935060208501519150808211156200020757600080fd5b50620002168582860162000107565b9150509250929050565b600181811c908216806200023557607f821691505b6020821081036200025657634e487b7160e01b600052602260045260246000fd5b50919050565b601f821115620002aa57600081815260208120601f850160051c81016020861015620002855750805b601f850160051c820191505b81811015620002a65782815560010162000291565b5050505b505050565b81516001600160401b03811115620002cb57620002cb620000f1565b620002e381620002dc845462000220565b846200025c565b602080601f8311600181146200031b5760008415620003025750858301515b600019600386901b1c1916600185901b178555620002a6565b600085815260208120601f198616915b828110156200034c578886015182559484019460019091019084016200032b565b50858210156200036b5787850151600019600388901b60f8161c191681555b5050505050600190811b01905550565b61196c806200038b6000396000f3fe608060405234801561001057600080fd5b50600436106101205760003560e01c8063715018a6116100ad578063b88d4fde11610071578063b88d4fde14610256578063c87b56dd14610269578063e985e9c51461027c578063f1b624331461028f578063f2fde38b146102a257600080fd5b8063715018a61461020f5780638da5cb5b1461021757806395d89b41146102285780639b73089d14610230578063a22cb4651461024357600080fd5b8063095ea7b3116100f4578063095ea7b3146101a257806323b872dd146101b557806342842e0e146101c85780636352211e146101db57806370a08231146101ee57600080fd5b806275a3171461012557806301ffc9a71461013a57806306fdde0314610162578063081812fc14610177575b600080fd5b61013861013336600461135c565b6102b5565b005b61014d6101483660046113d4565b610365565b60405190151581526020015b60405180910390f35b61016a610376565b6040516101599190611441565b61018a610185366004611454565b610408565b6040516001600160a01b039091168152602001610159565b6101386101b036600461146d565b610431565b6101386101c3366004611497565b610440565b6101386101d6366004611497565b6104cb565b61018a6101e9366004611454565b6104eb565b6102016101fc3660046114d3565b6104f6565b604051908152602001610159565b61013861053e565b6007546001600160a01b031661018a565b61016a610552565b61013861023e36600461153a565b610561565b6101386102513660046115a6565b610781565b6101386102643660046115e2565b61078c565b61016a610277366004611454565b6107a4565b61014d61028a36600461165e565b6107af565b61013861029d36600461146d565b6107dd565b6101386102b03660046114d3565b6108dd565b6102bd61091b565b6001600160a01b0382166102ec5760405162461bcd60e51b81526004016102e390611691565b60405180910390fd5b6008805490819060006102fe836116ba565b919050555061030d8382610948565b81511561031e5761031e8183610962565b80836001600160a01b03167fd35bb95e09c04b219e35047ce7b7b300e3384264ef84a40456943dbc0fc17c14846040516103589190611441565b60405180910390a3505050565b6000610370826109b2565b92915050565b606060008054610385906116e1565b80601f01602080910402602001604051908101604052809291908181526020018280546103b1906116e1565b80156103fe5780601f106103d3576101008083540402835291602001916103fe565b820191906000526020600020905b8154815290600101906020018083116103e157829003601f168201915b5050505050905090565b6000610413826109d7565b506000828152600460205260409020546001600160a01b0316610370565b61043c828233610a10565b5050565b6001600160a01b03821661046a57604051633250574960e11b8152600060048201526024016102e3565b6000610477838333610a1d565b9050836001600160a01b0316816001600160a01b0316146104c5576040516364283d7b60e01b81526001600160a01b03808616600483015260248201849052821660448201526064016102e3565b50505050565b6104e68383836040518060200160405280600081525061078c565b505050565b6000610370826109d7565b60006001600160a01b038216610522576040516322718ad960e21b8152600060048201526024016102e3565b506001600160a01b031660009081526003602052604090205490565b61054661091b565b6105506000610b16565b565b606060018054610385906116e1565b61056961091b565b8281146105aa5760405162461bcd60e51b815260206004820152600f60248201526e098cadccee8d040dad2e6dac2e8c6d608b1b60448201526064016102e3565b60005b8381101561077a5760008585838181106105c9576105c961171b565b90506020020160208101906105de91906114d3565b6001600160a01b0316036106045760405162461bcd60e51b81526004016102e390611691565b600880549081906000610616836116ba565b919050555061064b8686848181106106305761063061171b565b905060200201602081019061064591906114d3565b82610948565b600084848481811061065f5761065f61171b565b90506020028101906106719190611731565b905011156106db576106db8185858581811061068f5761068f61171b565b90506020028101906106a19190611731565b8080601f01602080910402602001604051908101604052809392919081815260200183838082843760009201919091525061096292505050565b808686848181106106ee576106ee61171b565b905060200201602081019061070391906114d3565b6001600160a01b03167fd35bb95e09c04b219e35047ce7b7b300e3384264ef84a40456943dbc0fc17c1486868681811061073f5761073f61171b565b90506020028101906107519190611731565b60405161075f929190611778565b60405180910390a35080610772816116ba565b9150506105ad565b5050505050565b61043c338383610b68565b610797848484610440565b6104c53385858585610bff565b606061037082610d29565b6001600160a01b03918216600090815260056020908152604080832093909416825291909152205460ff1690565b6107e561091b565b6001600160a01b03821661080b5760405162461bcd60e51b81526004016102e390611691565b600081116108525760405162461bcd60e51b815260206004820152601460248201527305175616e74697479206d757374206265203e20360641b60448201526064016102e3565b60005b818110156104e65760088054908190600061086f836116ba565b919050555061087e8482610948565b80846001600160a01b03167fd35bb95e09c04b219e35047ce7b7b300e3384264ef84a40456943dbc0fc17c146040516108c290602080825260009082015260400190565b60405180910390a350806108d5816116ba565b915050610855565b6108e561091b565b6001600160a01b03811661090f57604051631e4fbdf760e01b8152600060048201526024016102e3565b61091881610b16565b50565b6007546001600160a01b031633146105505760405163118cdaa760e01b81523360048201526024016102e3565b61043c828260405180602001604052806000815250610e3a565b600082815260066020526040902061097a82826117ed565b506040518281527ff8e1a15aba9398e019f0b49df1a4fde98ee17ae345cb5f6b5e2c27f5033e8ce79060200160405180910390a15050565b60006001600160e01b03198216632483248360e11b1480610370575061037082610e52565b6000818152600260205260408120546001600160a01b03168061037057604051637e27328960e01b8152600481018490526024016102e3565b6104e68383836001610ea2565b6000828152600260205260408120546001600160a01b0390811690831615610a4a57610a4a818486610fa8565b6001600160a01b03811615610a8857610a67600085600080610ea2565b6001600160a01b038116600090815260036020526040902080546000190190555b6001600160a01b03851615610ab7576001600160a01b0385166000908152600360205260409020805460010190555b60008481526002602052604080822080546001600160a01b0319166001600160a01b0389811691821790925591518793918516917fddf252ad1be2c89b69c2b068fc378daa952ba7f163c4a11628f55a4df523b3ef91a4949350505050565b600780546001600160a01b038381166001600160a01b0319831681179093556040519116919082907f8be0079c531659141344cd1fd0a4f28419497f9722a3daafe3b4186f6b6457e090600090a35050565b6001600160a01b038216610b9a57604051630b61174360e31b81526001600160a01b03831660048201526024016102e3565b6001600160a01b03838116600081815260056020908152604080832094871680845294825291829020805460ff191686151590811790915591519182527f17307eab39ab6107e8899845ad3d59bd9653f200f220920489ca2b5937696c319101610358565b6001600160a01b0383163b1561077a57604051630a85bd0160e11b81526001600160a01b0384169063150b7a0290610c419088908890879087906004016118ad565b6020604051808303816000875af1925050508015610c7c575060408051601f3d908101601f19168201909252610c79918101906118ea565b60015b610ce5573d808015610caa576040519150601f19603f3d011682016040523d82523d6000602084013e610caf565b606091505b508051600003610cdd57604051633250574960e11b81526001600160a01b03851660048201526024016102e3565b805160208201fd5b6001600160e01b03198116630a85bd0160e11b14610d2157604051633250574960e11b81526001600160a01b03851660048201526024016102e3565b505050505050565b6060610d34826109d7565b5060008281526006602052604081208054610d4e906116e1565b80601f0160208091040260200160405190810160405280929190818152602001828054610d7a906116e1565b8015610dc75780601f10610d9c57610100808354040283529160200191610dc7565b820191906000526020600020905b815481529060010190602001808311610daa57829003601f168201915b505050505090506000610de560408051602081019091526000815290565b90508051600003610df7575092915050565b815115610e29578082604051602001610e11929190611907565b60405160208183030381529060405292505050919050565b610e328461100c565b949350505050565b610e448383611081565b6104e6336000858585610bff565b60006001600160e01b031982166380ac58cd60e01b1480610e8357506001600160e01b03198216635b5e139f60e01b145b8061037057506301ffc9a760e01b6001600160e01b0319831614610370565b8080610eb657506001600160a01b03821615155b15610f78576000610ec6846109d7565b90506001600160a01b03831615801590610ef25750826001600160a01b0316816001600160a01b031614155b8015610f055750610f0381846107af565b155b15610f2e5760405163a9fbf51f60e01b81526001600160a01b03841660048201526024016102e3565b8115610f765783856001600160a01b0316826001600160a01b03167f8c5be1e5ebec7d5bd14f71427d1e84f3dd0314c0f7b2291e5b200ac8c7c3b92560405160405180910390a45b505b5050600090815260046020526040902080546001600160a01b0319166001600160a01b0392909216919091179055565b610fb38383836110e6565b6104e6576001600160a01b038316610fe157604051637e27328960e01b8152600481018290526024016102e3565b60405163177e802f60e01b81526001600160a01b0383166004820152602481018290526044016102e3565b6060611017826109d7565b50600061102f60408051602081019091526000815290565b9050600081511161104f576040518060200160405280600081525061107a565b8061105984611149565b60405160200161106a929190611907565b6040516020818303038152906040525b9392505050565b6001600160a01b0382166110ab57604051633250574960e11b8152600060048201526024016102e3565b60006110b983836000610a1d565b90506001600160a01b038116156104e6576040516339e3563760e11b8152600060048201526024016102e3565b60006001600160a01b03831615801590610e325750826001600160a01b0316846001600160a01b03161480611120575061112084846107af565b80610e325750506000908152600460205260409020546001600160a01b03908116911614919050565b60606000611156836111dc565b600101905060008167ffffffffffffffff811115611176576111766112d0565b6040519080825280601f01601f1916602001820160405280156111a0576020820181803683370190505b5090508181016020015b600019016f181899199a1a9b1b9c1cb0b131b232b360811b600a86061a8153600a85049450846111aa57509392505050565b60008072184f03e93ff9f4daa797ed6e38ed64bf6a1f0160401b831061121b5772184f03e93ff9f4daa797ed6e38ed64bf6a1f0160401b830492506040015b6d04ee2d6d415b85acef81000000008310611247576d04ee2d6d415b85acef8100000000830492506020015b662386f26fc10000831061126557662386f26fc10000830492506010015b6305f5e100831061127d576305f5e100830492506008015b612710831061129157612710830492506004015b606483106112a3576064830492506002015b600a83106103705760010192915050565b80356001600160a01b03811681146112cb57600080fd5b919050565b634e487b7160e01b600052604160045260246000fd5b600067ffffffffffffffff80841115611301576113016112d0565b604051601f8501601f19908116603f01168101908282118183101715611329576113296112d0565b8160405280935085815286868601111561134257600080fd5b858560208301376000602087830101525050509392505050565b6000806040838503121561136f57600080fd5b611378836112b4565b9150602083013567ffffffffffffffff81111561139457600080fd5b8301601f810185136113a557600080fd5b6113b4858235602084016112e6565b9150509250929050565b6001600160e01b03198116811461091857600080fd5b6000602082840312156113e657600080fd5b813561107a816113be565b60005b8381101561140c5781810151838201526020016113f4565b50506000910152565b6000815180845261142d8160208601602086016113f1565b601f01601f19169290920160200192915050565b60208152600061107a6020830184611415565b60006020828403121561146657600080fd5b5035919050565b6000806040838503121561148057600080fd5b611489836112b4565b946020939093013593505050565b6000806000606084860312156114ac57600080fd5b6114b5846112b4565b92506114c3602085016112b4565b9150604084013590509250925092565b6000602082840312156114e557600080fd5b61107a826112b4565b60008083601f84011261150057600080fd5b50813567ffffffffffffffff81111561151857600080fd5b6020830191508360208260051b850101111561153357600080fd5b9250929050565b6000806000806040858703121561155057600080fd5b843567ffffffffffffffff8082111561156857600080fd5b611574888389016114ee565b9096509450602087013591508082111561158d57600080fd5b5061159a878288016114ee565b95989497509550505050565b600080604083850312156115b957600080fd5b6115c2836112b4565b9150602083013580151581146115d757600080fd5b809150509250929050565b600080600080608085870312156115f857600080fd5b611601856112b4565b935061160f602086016112b4565b925060408501359150606085013567ffffffffffffffff81111561163257600080fd5b8501601f8101871361164357600080fd5b611652878235602084016112e6565b91505092959194509250565b6000806040838503121561167157600080fd5b61167a836112b4565b9150611688602084016112b4565b90509250929050565b6020808252600f908201526e496e76616c6964206164647265737360881b604082015260600190565b6000600182016116da57634e487b7160e01b600052601160045260246000fd5b5060010190565b600181811c908216806116f557607f821691505b60208210810361171557634e487b7160e01b600052602260045260246000fd5b50919050565b634e487b7160e01b600052603260045260246000fd5b6000808335601e1984360301811261174857600080fd5b83018035915067ffffffffffffffff82111561176357600080fd5b60200191503681900382131561153357600080fd5b60208152816020820152818360408301376000818301604090810191909152601f909201601f19160101919050565b601f8211156104e657600081815260208120601f850160051c810160208610156117ce5750805b601f850160051c820191505b81811015610d21578281556001016117da565b815167ffffffffffffffff811115611807576118076112d0565b61181b8161181584546116e1565b846117a7565b602080601f83116001811461185057600084156118385750858301515b600019600386901b1c1916600185901b178555610d21565b600085815260208120601f198616915b8281101561187f57888601518255948401946001909101908401611860565b508582101561189d5787850151600019600388901b60f8161c191681555b5050505050600190811b01905550565b6001600160a01b03858116825284166020820152604081018390526080606082018190526000906118e090830184611415565b9695505050505050565b6000602082840312156118fc57600080fd5b815161107a816113be565b600083516119198184602088016113f1565b83519083019061192d8183602088016113f1565b0194935050505056fea2646970667358221220f1ce8b856364296760cca417a8bd2bb4967381a2d3ac1114e1cb0fa33e6b11b764736f6c63430008150033",
  "immutableReferences": {},
  "source": "// SPDX-License-Identifier: MIT\r\npragma solidity ^0.8.19;\r\n\r\nimport \"@openzeppelin/contracts/token/ERC721/ERC721.sol\";\r\nimport \"@openzeppelin/contracts/token/ERC721/extensions/ERC721URIStorage.sol\";\r\nimport \"@openzeppelin/contracts/access/Ownable.sol\";\r\n\r\ncontract NFT is ERC721, ERC721URIStorage, Ownable {\r\n    uint256 private _tokenIdCounter;\r\n\r\n    event NFTMinted(\r\n        address indexed to,\r\n        uint256 indexed tokenId,\r\n        string tokenURI\r\n    );\r\n\r\n    constructor(\r\n        string memory name,\r\n        string memory symbol\r\n    ) ERC721(name, symbol) Ownable(msg.sender) {\r\n        _tokenIdCounter = 0;\r\n    }\r\n\r\n    // Mint single NFT\r\n    function mintTo(address to, string memory uri) external onlyOwner {\r\n        require(to != address(0), \"Invalid address\");\r\n\r\n        uint256 tokenId = _tokenIdCounter;\r\n        _tokenIdCounter++;\r\n\r\n        _safeMint(to, tokenId);\r\n        if (bytes(uri).length > 0) {\r\n            _setTokenURI(tokenId, uri);\r\n        }\r\n\r\n        emit NFTMinted(to, tokenId, uri);\r\n    }\r\n\r\n    // Mint to multiple addresses (one each)\r\n    function batchMintTo(\r\n        address[] calldata recipients,\r\n        string[] calldata uris\r\n    ) external onlyOwner {\r\n        require(recipients.length == uris.length, \"Length mismatch\");\r\n\r\n        for (uint256 i = 0; i < recipients.length; i++) {\r\n            require(recipients[i] != address(0), \"Invalid address\");\r\n\r\n            uint256 tokenId = _tokenIdCounter;\r\n            _tokenIdCounter++;\r\n\r\n            _safeMint(recipients[i], tokenId);\r\n            if (bytes(uris[i]).length > 0) {\r\n                _setTokenURI(tokenId, uris[i]);\r\n            }\r\n\r\n            emit NFTMinted(recipients[i], tokenId, uris[i]);\r\n        }\r\n    }\r\n\r\n    // Mint multiple NFTs to one address\r\n    function mintMultipleTo(address to, uint256 quantity) external onlyOwner {\r\n        require(to != address(0), \"Invalid address\");\r\n        require(quantity > 0, \"Quantity must be > 0\");\r\n\r\n        for (uint256 i = 0; i < quantity; i++) {\r\n            uint256 tokenId = _tokenIdCounter;\r\n            _tokenIdCounter++;\r\n\r\n            _safeMint(to, tokenId);\r\n            emit NFTMinted(to, tokenId, \"\");\r\n        }\r\n    }\r\n\r\n    function tokenURI(\r\n        uint256 tokenId\r\n    ) public view override(ERC721, ERC721URIStorage) returns (string memory) {\r\n        return super.tokenURI(tokenId);\r\n    }\r\n\r\n    function supportsInterface(\r\n        bytes4 interfaceId\r\n    ) public view override(ERC721, ERC721URIStorage) returns (bool) {\r\n        return super.supportsInterface(interfaceId);\r\n    }\r\n}\r\n",
  "sourcePath": "C:\\Users\\Huy\\Desktop\\History-Chess-Game-Back-End\\src\\blockchain\\truffle\\contracts\\NFT.sol",
  "compiler": {
    "name": "solc",
    "version": "0.8.21+commit.d9974bed.Emscripten.clang"
  },
  "schemaVersion": "3.4.16",
  "updatedAt": "2025-10-19T04:45:28.529Z",
  "networkType": "ethereum",
  "devdoc": {
    "errors": {
      "ERC721IncorrectOwner(address,uint256,address)": [
        {
          "details": "Indicates an error related to the ownership over a particular token. Used in transfers.",
          "params": {
            "owner": "Address of the current owner of a token.",
            "sender": "Address whose tokens are being transferred.",
            "tokenId": "Identifier number of a token."
          }
        }
      ],
      "ERC721InsufficientApproval(address,uint256)": [
        {
          "details": "Indicates a failure with the `operator`s approval. Used in transfers.",
          "params": {
            "operator": "Address that may be allowed to operate on tokens without being their owner.",
            "tokenId": "Identifier number of a token."
          }
        }
      ],
      "ERC721InvalidApprover(address)": [
        {
          "details": "Indicates a failure with the `approver` of a token to be approved. Used in approvals.",
          "params": {
            "approver": "Address initiating an approval operation."
          }
        }
      ],
      "ERC721InvalidOperator(address)": [
        {
          "details": "Indicates a failure with the `operator` to be approved. Used in approvals.",
          "params": {
            "operator": "Address that may be allowed to operate on tokens without being their owner."
          }
        }
      ],
      "ERC721InvalidOwner(address)": [
        {
          "details": "Indicates that an address can't be an owner. For example, `address(0)` is a forbidden owner in ERC-20. Used in balance queries.",
          "params": {
            "owner": "Address of the current owner of a token."
          }
        }
      ],
      "ERC721InvalidReceiver(address)": [
        {
          "details": "Indicates a failure with the token `receiver`. Used in transfers.",
          "params": {
            "receiver": "Address to which tokens are being transferred."
          }
        }
      ],
      "ERC721InvalidSender(address)": [
        {
          "details": "Indicates a failure with the token `sender`. Used in transfers.",
          "params": {
            "sender": "Address whose tokens are being transferred."
          }
        }
      ],
      "ERC721NonexistentToken(uint256)": [
        {
          "details": "Indicates a `tokenId` whose `owner` is the zero address.",
          "params": {
            "tokenId": "Identifier number of a token."
          }
        }
      ],
      "OwnableInvalidOwner(address)": [
        {
          "details": "The owner is not a valid owner account. (eg. `address(0)`)"
        }
      ],
      "OwnableUnauthorizedAccount(address)": [
        {
          "details": "The caller account is not authorized to perform an operation."
        }
      ]
    },
    "events": {
      "Approval(address,address,uint256)": {
        "details": "Emitted when `owner` enables `approved` to manage the `tokenId` token."
      },
      "ApprovalForAll(address,address,bool)": {
        "details": "Emitted when `owner` enables or disables (`approved`) `operator` to manage all of its assets."
      },
      "BatchMetadataUpdate(uint256,uint256)": {
        "details": "This event emits when the metadata of a range of tokens is changed. So that the third-party platforms such as NFT market could timely update the images and related attributes of the NFTs."
      },
      "MetadataUpdate(uint256)": {
        "details": "This event emits when the metadata of a token is changed. So that the third-party platforms such as NFT market could timely update the images and related attributes of the NFT."
      },
      "Transfer(address,address,uint256)": {
        "details": "Emitted when `tokenId` token is transferred from `from` to `to`."
      }
    },
    "kind": "dev",
    "methods": {
      "approve(address,uint256)": {
        "details": "Gives permission to `to` to transfer `tokenId` token to another account. The approval is cleared when the token is transferred. Only a single account can be approved at a time, so approving the zero address clears previous approvals. Requirements: - The caller must own the token or be an approved operator. - `tokenId` must exist. Emits an {Approval} event."
      },
      "balanceOf(address)": {
        "details": "Returns the number of tokens in ``owner``'s account."
      },
      "getApproved(uint256)": {
        "details": "Returns the account approved for `tokenId` token. Requirements: - `tokenId` must exist."
      },
      "isApprovedForAll(address,address)": {
        "details": "Returns if the `operator` is allowed to manage all of the assets of `owner`. See {setApprovalForAll}"
      },
      "name()": {
        "details": "Returns the token collection name."
      },
      "owner()": {
        "details": "Returns the address of the current owner."
      },
      "ownerOf(uint256)": {
        "details": "Returns the owner of the `tokenId` token. Requirements: - `tokenId` must exist."
      },
      "renounceOwnership()": {
        "details": "Leaves the contract without owner. It will not be possible to call `onlyOwner` functions. Can only be called by the current owner. NOTE: Renouncing ownership will leave the contract without an owner, thereby disabling any functionality that is only available to the owner."
      },
      "safeTransferFrom(address,address,uint256)": {
        "details": "Safely transfers `tokenId` token from `from` to `to`, checking first that contract recipients are aware of the ERC-721 protocol to prevent tokens from being forever locked. Requirements: - `from` cannot be the zero address. - `to` cannot be the zero address. - `tokenId` token must exist and be owned by `from`. - If the caller is not `from`, it must have been allowed to move this token by either {approve} or   {setApprovalForAll}. - If `to` refers to a smart contract, it must implement {IERC721Receiver-onERC721Received}, which is called upon   a safe transfer. Emits a {Transfer} event."
      },
      "safeTransferFrom(address,address,uint256,bytes)": {
        "details": "Safely transfers `tokenId` token from `from` to `to`. Requirements: - `from` cannot be the zero address. - `to` cannot be the zero address. - `tokenId` token must exist and be owned by `from`. - If the caller is not `from`, it must be approved to move this token by either {approve} or {setApprovalForAll}. - If `to` refers to a smart contract, it must implement {IERC721Receiver-onERC721Received}, which is called upon   a safe transfer. Emits a {Transfer} event."
      },
      "setApprovalForAll(address,bool)": {
        "details": "Approve or remove `operator` as an operator for the caller. Operators can call {transferFrom} or {safeTransferFrom} for any token owned by the caller. Requirements: - The `operator` cannot be the address zero. Emits an {ApprovalForAll} event."
      },
      "symbol()": {
        "details": "Returns the token collection symbol."
      },
      "transferFrom(address,address,uint256)": {
        "details": "Transfers `tokenId` token from `from` to `to`. WARNING: Note that the caller is responsible to confirm that the recipient is capable of receiving ERC-721 or else they may be permanently lost. Usage of {safeTransferFrom} prevents loss, though the caller must understand this adds an external call which potentially creates a reentrancy vulnerability. Requirements: - `from` cannot be the zero address. - `to` cannot be the zero address. - `tokenId` token must be owned by `from`. - If the caller is not `from`, it must be approved to move this token by either {approve} or {setApprovalForAll}. Emits a {Transfer} event."
      },
      "transferOwnership(address)": {
        "details": "Transfers ownership of the contract to a new account (`newOwner`). Can only be called by the current owner."
      }
    },
    "version": 1
  },
  "userdoc": {
    "kind": "user",
    "methods": {},
    "version": 1
  }
}