{
  "contractName": "NFTMarketplace",
  "abi": [
    {
      "inputs": [],
      "name": "ReentrancyGuardReentrantCall",
      "type": "error"
    },
    {
      "anonymous": false,
      "inputs": [
        {
          "indexed": true,
          "internalType": "uint256",
          "name": "listingId",
          "type": "uint256"
        },
        {
          "indexed": true,
          "internalType": "address",
          "name": "nftContractAddress",
          "type": "address"
        },
        {
          "indexed": true,
          "internalType": "uint256",
          "name": "tokenId",
          "type": "uint256"
        },
        {
          "indexed": false,
          "internalType": "uint256",
          "name": "price",
          "type": "uint256"
        },
        {
          "indexed": false,
          "internalType": "enum NFTMarketplace.ListingStatus",
          "name": "status",
          "type": "uint8"
        },
        {
          "indexed": false,
          "internalType": "address",
          "name": "sellerAddress",
          "type": "address"
        },
        {
          "indexed": false,
          "internalType": "uint256",
          "name": "cancelTimestamp",
          "type": "uint256"
        }
      ],
      "name": "ListingCancelled",
      "type": "event"
    },
    {
      "anonymous": false,
      "inputs": [
        {
          "indexed": true,
          "internalType": "uint256",
          "name": "listingId",
          "type": "uint256"
        },
        {
          "indexed": true,
          "internalType": "address",
          "name": "nftContractAddress",
          "type": "address"
        },
        {
          "indexed": true,
          "internalType": "uint256",
          "name": "tokenId",
          "type": "uint256"
        },
        {
          "indexed": false,
          "internalType": "uint256",
          "name": "price",
          "type": "uint256"
        },
        {
          "indexed": false,
          "internalType": "enum NFTMarketplace.ListingStatus",
          "name": "status",
          "type": "uint8"
        },
        {
          "indexed": false,
          "internalType": "address",
          "name": "sellerAddress",
          "type": "address"
        },
        {
          "indexed": false,
          "internalType": "uint256",
          "name": "createTimestamp",
          "type": "uint256"
        }
      ],
      "name": "ListingCreated",
      "type": "event"
    },
    {
      "anonymous": false,
      "inputs": [
        {
          "indexed": true,
          "internalType": "uint256",
          "name": "listingId",
          "type": "uint256"
        },
        {
          "indexed": true,
          "internalType": "address",
          "name": "nftContractAddress",
          "type": "address"
        },
        {
          "indexed": true,
          "internalType": "uint256",
          "name": "tokenId",
          "type": "uint256"
        },
        {
          "indexed": false,
          "internalType": "uint256",
          "name": "price",
          "type": "uint256"
        },
        {
          "indexed": false,
          "internalType": "enum NFTMarketplace.ListingStatus",
          "name": "status",
          "type": "uint8"
        },
        {
          "indexed": false,
          "internalType": "address",
          "name": "sellerAddress",
          "type": "address"
        },
        {
          "indexed": false,
          "internalType": "address",
          "name": "buyerAddress",
          "type": "address"
        },
        {
          "indexed": false,
          "internalType": "uint256",
          "name": "purchaseTimestamp",
          "type": "uint256"
        }
      ],
      "name": "ListingPurchased",
      "type": "event"
    },
    {
      "inputs": [],
      "name": "listingId",
      "outputs": [
        {
          "internalType": "uint256",
          "name": "",
          "type": "uint256"
        }
      ],
      "stateMutability": "view",
      "type": "function",
      "constant": true
    },
    {
      "inputs": [
        {
          "internalType": "uint256",
          "name": "",
          "type": "uint256"
        }
      ],
      "name": "listings",
      "outputs": [
        {
          "internalType": "address",
          "name": "nftContractAddress",
          "type": "address"
        },
        {
          "internalType": "uint256",
          "name": "tokenId",
          "type": "uint256"
        },
        {
          "internalType": "uint256",
          "name": "price",
          "type": "uint256"
        },
        {
          "internalType": "enum NFTMarketplace.ListingStatus",
          "name": "status",
          "type": "uint8"
        },
        {
          "internalType": "address",
          "name": "sellerAddress",
          "type": "address"
        },
        {
          "internalType": "address",
          "name": "buyerAddress",
          "type": "address"
        },
        {
          "internalType": "uint256",
          "name": "createTimestamp",
          "type": "uint256"
        },
        {
          "internalType": "uint256",
          "name": "purchaseTimestamp",
          "type": "uint256"
        },
        {
          "internalType": "uint256",
          "name": "cancelTimestamp",
          "type": "uint256"
        }
      ],
      "stateMutability": "view",
      "type": "function",
      "constant": true
    },
    {
      "inputs": [
        {
          "internalType": "address",
          "name": "nftContractAddress",
          "type": "address"
        },
        {
          "internalType": "uint256",
          "name": "tokenId",
          "type": "uint256"
        },
        {
          "internalType": "uint256",
          "name": "price",
          "type": "uint256"
        }
      ],
      "name": "createListing",
      "outputs": [],
      "stateMutability": "nonpayable",
      "type": "function"
    },
    {
      "inputs": [
        {
          "internalType": "uint256",
          "name": "_listingId",
          "type": "uint256"
        }
      ],
      "name": "purchaseListing",
      "outputs": [],
      "stateMutability": "payable",
      "type": "function",
      "payable": true
    },
    {
      "inputs": [
        {
          "internalType": "uint256",
          "name": "_listingId",
          "type": "uint256"
        }
      ],
      "name": "cancelListing",
      "outputs": [],
      "stateMutability": "nonpayable",
      "type": "function"
    }
  ],
  "bytecode": "0x608060405234801561001057600080fd5b506001600055610c51806100256000396000f3fe60806040526004361061004a5760003560e01c8063169d5a7d1461004f57806324780c5614610064578063305a67a8146100845780639405dfdd146100a4578063de74e57b146100cd575b600080fd5b61006261005d366004610a4a565b610157565b005b34801561007057600080fd5b5061006261007f366004610a78565b61049b565b34801561009057600080fd5b5061006261009f366004610a4a565b610876565b3480156100b057600080fd5b506100ba60015481565b6040519081526020015b60405180910390f35b3480156100d957600080fd5b506101426100e8366004610a4a565b6002602081905260009182526040909120805460018201549282015460038301546004840154600585015460068601546007909601546001600160a01b039586169796949560ff8516956101009095048116949316929089565b6040516100c499989796959493929190610ae5565b61015f610a20565b6000818152600260205260409020600381015461010090046001600160a01b03166101ca5760405162461bcd60e51b8152602060048201526016602482015275131a5cdd1a5b99c8191bd95cc81b9bdd08195e1a5cdd60521b60448201526064015b60405180910390fd5b600381015461010090046001600160a01b0316330361022b5760405162461bcd60e51b815260206004820152601f60248201527f53656c6c65722063616e6e6f7420627579207468656972206f776e204e46540060448201526064016101c1565b6000600382015460ff16600281111561024657610246610aad565b146102935760405162461bcd60e51b815260206004820152601e60248201527f54686973206974656d206973206e6f206c6f6e676572204f6e2053616c65000060448201526064016101c1565b806002015434146102e65760405162461bcd60e51b815260206004820152601860248201527f496e636f7272656374207061796d656e7420616d6f756e74000000000000000060448201526064016101c1565b600381018054600160ff1990911617908190556004820180546001600160a01b0319163317905542600683015560405160009161010090046001600160a01b03169034908381818185875af1925050503d8060008114610362576040519150601f19603f3d011682016040523d82523d6000602084013e610367565b606091505b50509050806103ae5760405162461bcd60e51b8152602060048201526013602482015272115512081d1c985b9cd9995c8819985a5b1959606a1b60448201526064016101c1565b815460038301546001840154604051632142170760e11b81526001600160a01b036101009093048316600482015233602482015260448101919091529116906342842e0e90606401600060405180830381600087803b15801561041057600080fd5b505af1158015610424573d6000803e3d6000fd5b5050506001808401548454600286015460038701546040519395506001600160a01b039283169489947ff64404803da4e421df74b89b64617bb5a7e61ff2bc7e77e14f072c6a0f765cc89461048494936101009004169033904290610b43565b60405180910390a450506104986001600055565b50565b6040516331a9108f60e11b81526004810183905233906001600160a01b03851690636352211e90602401602060405180830381865afa1580156104e2573d6000803e3d6000fd5b505050506040513d601f19601f820116820180604052508101906105069190610b7f565b6001600160a01b0316146105665760405162461bcd60e51b815260206004820152602160248201527f596f7520617265206e6f7420746865206f776e6572206f662074686973204e466044820152601560fa1b60648201526084016101c1565b60405163020604bf60e21b81526004810183905230906001600160a01b0385169063081812fc90602401602060405180830381865afa1580156105ad573d6000803e3d6000fd5b505050506040513d601f19601f820116820180604052508101906105d19190610b7f565b6001600160a01b0316148061064f575060405163e985e9c560e01b81523360048201523060248201526001600160a01b0384169063e985e9c590604401602060405180830381865afa15801561062b573d6000803e3d6000fd5b505050506040513d601f19601f8201168201806040525081019061064f9190610ba3565b6106ac5760405162461bcd60e51b815260206004820152602860248201527f4d61726b6574706c616365206e6f7420617070726f76656420746f207472616e6044820152671cd9995c8813919560c21b60648201526084016101c1565b600081116106fc5760405162461bcd60e51b815260206004820152601c60248201527f5072696365206d7573742062652067726561746572207468616e20300000000060448201526064016101c1565b6001805490600061070c83610bc5565b909155505060408051610120810182526001600160a01b038581168252602080830186815283850186815260006060860181815233608088015260a087018290524260c088015260e08701829052610100870182905260018054835260029586905297909120865181546001600160a01b0319169616959095178555915184870155518383015551600383018054949593949193909260ff19929092169184908111156107bb576107bb610aad565b02179055506080820151600382018054610100600160a81b0319166101006001600160a01b0393841681029190911790915560a08401516004840180546001600160a01b03191691841691909117905560c0840151600584015560e08401516006840155909201516007909101556001546040518492861691907fe095fa8d4301a707269cab64e2670497844b884863186458bdee22195aa813a69061086990869060009033904290610bec565b60405180910390a4505050565b6000818152600260205260409020600381015461010090046001600160a01b03166108dc5760405162461bcd60e51b8152602060048201526016602482015275131a5cdd1a5b99c8191bd95cc81b9bdd08195e1a5cdd60521b60448201526064016101c1565b6000600382015460ff1660028111156108f7576108f7610aad565b146109445760405162461bcd60e51b815260206004820152601b60248201527f54686973206974656d206973206e6f74206f6e206c697374696e67000000000060448201526064016101c1565b600381015461010090046001600160a01b031633146109a55760405162461bcd60e51b815260206004820152601e60248201527f4f6e6c792073656c6c65722063616e2063616e63656c206c697374696e67000060448201526064016101c1565b60038101805460ff19166002908117918290554260078401819055600184015484548386015460405192956001600160a01b039283169589957fb8faf04020383a66648c717a5227a64568114fe14708d16d44825f3c8e28638b95610a14959293610100900490921691610bec565b60405180910390a45050565b600260005403610a4357604051633ee5aeb560e01b815260040160405180910390fd5b6002600055565b600060208284031215610a5c57600080fd5b5035919050565b6001600160a01b038116811461049857600080fd5b600080600060608486031215610a8d57600080fd5b8335610a9881610a63565b95602085013595506040909401359392505050565b634e487b7160e01b600052602160045260246000fd5b60038110610ae157634e487b7160e01b600052602160045260246000fd5b9052565b6001600160a01b038a81168252602082018a905260408201899052610120820190610b13606084018a610ac3565b96871660808301529490951660a086015260c085019290925260e084015261010090920191909152949350505050565b85815260a08101610b576020830187610ac3565b6001600160a01b03948516604083015292909316606084015260809092019190915292915050565b600060208284031215610b9157600080fd5b8151610b9c81610a63565b9392505050565b600060208284031215610bb557600080fd5b81518015158114610b9c57600080fd5b600060018201610be557634e487b7160e01b600052601160045260246000fd5b5060010190565b84815260808101610c006020830186610ac3565b6001600160a01b03939093166040820152606001529291505056fea26469706673582212208b5cde24768feaff153034dcfb271b1a5d882d8ba3175ca8a793cb7c11a5aea564736f6c63430008150033",
  "immutableReferences": {},
  "source": "// SPDX-License-Identifier: MIT\r\npragma solidity ^0.8.19;\r\n\r\nimport \"@openzeppelin/contracts/token/ERC721/IERC721.sol\";\r\nimport \"@openzeppelin/contracts/utils/ReentrancyGuard.sol\";\r\n\r\ncontract NFTMarketplace is ReentrancyGuard {\r\n    enum ListingStatus {\r\n        ON_SALE,\r\n        PURCHASED,\r\n        CANCELLED\r\n    }\r\n\r\n    struct Listing {\r\n        address nftContractAddress;\r\n        uint256 tokenId;\r\n        uint256 price;\r\n        ListingStatus status;\r\n        address sellerAddress;\r\n        address buyerAddress;\r\n        uint256 createTimestamp;\r\n        uint256 purchaseTimestamp;\r\n        uint256 cancelTimestamp;\r\n    }\r\n\r\n    uint256 public listingId;\r\n    mapping(uint256 => Listing) public listings;\r\n\r\n    event ListingCreated(\r\n        uint256 indexed listingId,\r\n        address indexed nftContractAddress,\r\n        uint256 indexed tokenId,\r\n        uint256 price,\r\n        ListingStatus status,\r\n        address sellerAddress,\r\n        uint256 createTimestamp\r\n    );\r\n\r\n    event ListingPurchased(\r\n        uint256 indexed listingId,\r\n        address indexed nftContractAddress,\r\n        uint256 indexed tokenId,\r\n        uint256 price,\r\n        ListingStatus status,\r\n        address sellerAddress,\r\n        address buyerAddress,\r\n        uint256 purchaseTimestamp\r\n    );\r\n\r\n    event ListingCancelled(\r\n        uint256 indexed listingId,\r\n        address indexed nftContractAddress,\r\n        uint256 indexed tokenId,\r\n        uint256 price,\r\n        ListingStatus status,\r\n        address sellerAddress,\r\n        uint256 cancelTimestamp\r\n    );\r\n\r\n    function createListing(\r\n        address nftContractAddress,\r\n        uint256 tokenId,\r\n        uint256 price\r\n    ) external {\r\n        // Preconditions\r\n        require(\r\n            IERC721(nftContractAddress).ownerOf(tokenId) == msg.sender,\r\n            \"You are not the owner of this NFT\"\r\n        );\r\n        require(\r\n            IERC721(nftContractAddress).getApproved(tokenId) == address(this) ||\r\n                IERC721(nftContractAddress).isApprovedForAll(\r\n                    msg.sender,\r\n                    address(this)\r\n                ),\r\n            \"Marketplace not approved to transfer NFT\"\r\n        );\r\n        require(price > 0, \"Price must be greater than 0\");\r\n\r\n        // Effects\r\n        listingId++;\r\n\r\n        listings[listingId] = Listing({\r\n            nftContractAddress: nftContractAddress,\r\n            tokenId: tokenId,\r\n            price: price,\r\n            status: ListingStatus.ON_SALE,\r\n            sellerAddress: msg.sender,\r\n            buyerAddress: address(0),\r\n            createTimestamp: block.timestamp,\r\n            purchaseTimestamp: 0,\r\n            cancelTimestamp: 0\r\n        });\r\n\r\n        // Events\r\n        emit ListingCreated(\r\n            listingId,\r\n            nftContractAddress,\r\n            tokenId,\r\n            price,\r\n            ListingStatus.ON_SALE,\r\n            msg.sender,\r\n            block.timestamp\r\n        );\r\n    }\r\n\r\n    function purchaseListing(uint256 _listingId) external payable nonReentrant {\r\n        Listing storage listing = listings[_listingId];\r\n\r\n        // Preconditions\r\n        require(listing.sellerAddress != address(0), \"Listing does not exist\");\r\n        require(\r\n            msg.sender != listing.sellerAddress,\r\n            \"Seller cannot buy their own NFT\"\r\n        );\r\n        require(\r\n            listing.status == ListingStatus.ON_SALE,\r\n            \"This item is no longer On Sale\"\r\n        );\r\n        require(msg.value == listing.price, \"Incorrect payment amount\");\r\n\r\n        // Effects\r\n        listing.status = ListingStatus.PURCHASED;\r\n        listing.buyerAddress = msg.sender;\r\n        listing.purchaseTimestamp = block.timestamp;\r\n\r\n        // Transfer ETH to seller\r\n        (bool success, ) = payable(listing.sellerAddress).call{\r\n            value: msg.value\r\n        }(\"\");\r\n        require(success, \"ETH transfer failed\");\r\n\r\n        // Transfer NFT to buyer\r\n        IERC721(listing.nftContractAddress).safeTransferFrom(\r\n            listing.sellerAddress,\r\n            msg.sender,\r\n            listing.tokenId\r\n        );\r\n\r\n        // Events\r\n        emit ListingPurchased(\r\n            _listingId,\r\n            listing.nftContractAddress,\r\n            listing.tokenId,\r\n            listing.price,\r\n            ListingStatus.PURCHASED,\r\n            listing.sellerAddress,\r\n            msg.sender,\r\n            block.timestamp\r\n        );\r\n    }\r\n\r\n    function cancelListing(uint256 _listingId) external {\r\n        Listing storage listing = listings[_listingId];\r\n\r\n        // Preconditions\r\n        require(listing.sellerAddress != address(0), \"Listing does not exist\");\r\n        require(\r\n            listing.status == ListingStatus.ON_SALE,\r\n            \"This item is not on listing\"\r\n        );\r\n        require(\r\n            msg.sender == listing.sellerAddress,\r\n            \"Only seller can cancel listing\"\r\n        );\r\n\r\n        // Effects\r\n        listing.status = ListingStatus.CANCELLED;\r\n        listing.cancelTimestamp = block.timestamp;\r\n\r\n        // Events\r\n        emit ListingCancelled(\r\n            _listingId,\r\n            listing.nftContractAddress,\r\n            listing.tokenId,\r\n            listing.price,\r\n            ListingStatus.CANCELLED,\r\n            listing.sellerAddress,\r\n            block.timestamp\r\n        );\r\n    }\r\n\r\n    // function getListing(\r\n    //     uint256 _listingId\r\n    // )\r\n    //     external\r\n    //     view\r\n    //     returns (\r\n    //         address nftContractAddress,\r\n    //         uint256 tokenId,\r\n    //         address seller,\r\n    //         address buyer,\r\n    //         uint256 price,\r\n    //         ListingStatus status,\r\n    //         uint256 createTimestamp,\r\n    //         uint256 purchaseTimestamp,\r\n    //         uint256 cancelTimestamp\r\n    //     )\r\n    // {\r\n    //     Listing memory listing = listings[_listingId];\r\n    //     return (\r\n    //         listing.nftContractAddress,\r\n    //         listing.tokenId,\r\n    //         listing.sellerAddress,\r\n    //         listing.buyerAddress,\r\n    //         listing.price,\r\n    //         listing.status,\r\n    //         listing.createTimestamp,\r\n    //         listing.purchaseTimestamp,\r\n    //         listing.cancelTimestamp\r\n    //     );\r\n    // }\r\n}\r\n",
  "sourcePath": "C:\\Users\\Huy\\Desktop\\History-Chess-Game-Back-End\\src\\blockchain\\truffle\\contracts\\NFTMarketplace.sol",
  "compiler": {
    "name": "solc",
    "version": "0.8.21+commit.d9974bed.Emscripten.clang"
  },
  "schemaVersion": "3.4.16",
  "updatedAt": "2025-10-19T04:45:28.539Z",
  "networkType": "ethereum",
  "devdoc": {
    "errors": {
      "ReentrancyGuardReentrantCall()": [
        {
          "details": "Unauthorized reentrant call."
        }
      ]
    },
    "kind": "dev",
    "methods": {},
    "version": 1
  },
  "userdoc": {
    "kind": "user",
    "methods": {},
    "version": 1
  }
}