{
  "contractName": "EloManager",
  "abi": [
    {
      "anonymous": false,
      "inputs": [
        {
          "indexed": true,
          "internalType": "address",
          "name": "player",
          "type": "address"
        },
        {
          "indexed": false,
          "internalType": "uint256",
          "name": "newElo",
          "type": "uint256"
        },
        {
          "indexed": false,
          "internalType": "uint256",
          "name": "amount",
          "type": "uint256"
        }
      ],
      "name": "EloDecreased",
      "type": "event"
    },
    {
      "anonymous": false,
      "inputs": [
        {
          "indexed": true,
          "internalType": "address",
          "name": "player",
          "type": "address"
        },
        {
          "indexed": false,
          "internalType": "uint256",
          "name": "newElo",
          "type": "uint256"
        },
        {
          "indexed": false,
          "internalType": "uint256",
          "name": "amount",
          "type": "uint256"
        }
      ],
      "name": "EloIncreased",
      "type": "event"
    },
    {
      "anonymous": false,
      "inputs": [
        {
          "indexed": true,
          "internalType": "address",
          "name": "player",
          "type": "address"
        },
        {
          "indexed": false,
          "internalType": "uint256",
          "name": "elo",
          "type": "uint256"
        }
      ],
      "name": "EloSet",
      "type": "event"
    },
    {
      "inputs": [
        {
          "internalType": "address",
          "name": "player",
          "type": "address"
        },
        {
          "internalType": "uint256",
          "name": "elo",
          "type": "uint256"
        }
      ],
      "name": "setElo",
      "outputs": [],
      "stateMutability": "nonpayable",
      "type": "function"
    },
    {
      "inputs": [
        {
          "internalType": "address",
          "name": "player",
          "type": "address"
        },
        {
          "internalType": "uint256",
          "name": "amount",
          "type": "uint256"
        }
      ],
      "name": "increaseElo",
      "outputs": [],
      "stateMutability": "nonpayable",
      "type": "function"
    },
    {
      "inputs": [
        {
          "internalType": "address",
          "name": "player",
          "type": "address"
        },
        {
          "internalType": "uint256",
          "name": "amount",
          "type": "uint256"
        }
      ],
      "name": "decreaseElo",
      "outputs": [],
      "stateMutability": "nonpayable",
      "type": "function"
    },
    {
      "inputs": [
        {
          "internalType": "address",
          "name": "playerA",
          "type": "address"
        },
        {
          "internalType": "uint256",
          "name": "newEloA",
          "type": "uint256"
        },
        {
          "internalType": "address",
          "name": "playerB",
          "type": "address"
        },
        {
          "internalType": "uint256",
          "name": "newEloB",
          "type": "uint256"
        }
      ],
      "name": "updateAfterGame",
      "outputs": [],
      "stateMutability": "nonpayable",
      "type": "function"
    },
    {
      "inputs": [
        {
          "internalType": "address",
          "name": "player",
          "type": "address"
        }
      ],
      "name": "getElo",
      "outputs": [
        {
          "internalType": "uint256",
          "name": "",
          "type": "uint256"
        }
      ],
      "stateMutability": "view",
      "type": "function"
    }
  ],
  "bytecode": "0x608060405234801561001057600080fd5b50610879806100206000396000f3fe608060405234801561001057600080fd5b50600436106100575760003560e01c8063132483321461005c5780631ec90635146100785780633e0130e014610094578063784ffe5e146100c4578063d8e1aa85146100e0575b600080fd5b610076600480360381019061007191906105bd565b6100fc565b005b610092600480360381019061008d91906105bd565b610191565b005b6100ae60048036038101906100a99190610594565b610278565b6040516100bb91906106cb565b60405180910390f35b6100de60048036038101906100d991906105bd565b6102da565b005b6100fa60048036038101906100f591906105f9565b610442565b005b806000808473ffffffffffffffffffffffffffffffffffffffff1673ffffffffffffffffffffffffffffffffffffffff168152602001908152602001600020819055508173ffffffffffffffffffffffffffffffffffffffff167f496faa74be7a4ce3d64cdb7173656469ef2135dc42d3e8d619bb18d0aaae03bb8260405161018591906106cb565b60405180910390a25050565b806000808473ffffffffffffffffffffffffffffffffffffffff1673ffffffffffffffffffffffffffffffffffffffff16815260200190815260200160002060008282546101df9190610720565b925050819055508173ffffffffffffffffffffffffffffffffffffffff167f2106fc14943abb12f96874aac43d25eae53c772013a471ab155334b387ef8de06000808573ffffffffffffffffffffffffffffffffffffffff1673ffffffffffffffffffffffffffffffffffffffff168152602001908152602001600020548360405161026c9291906106e6565b60405180910390a25050565b6000806000808473ffffffffffffffffffffffffffffffffffffffff1673ffffffffffffffffffffffffffffffffffffffff16815260200190815260200160002054905060008114156102d0576105dc9150506102d5565b809150505b919050565b806000808473ffffffffffffffffffffffffffffffffffffffff1673ffffffffffffffffffffffffffffffffffffffff16815260200190815260200160002054101561035b576040517f08c379a0000000000000000000000000000000000000000000000000000000008152600401610352906106ab565b60405180910390fd5b806000808473ffffffffffffffffffffffffffffffffffffffff1673ffffffffffffffffffffffffffffffffffffffff16815260200190815260200160002060008282546103a99190610776565b925050819055508173ffffffffffffffffffffffffffffffffffffffff167fbd94c55ead622632a122fe7f0a0479ada8c3c74c2bb0499a2d616d279b2471f66000808573ffffffffffffffffffffffffffffffffffffffff1673ffffffffffffffffffffffffffffffffffffffff16815260200190815260200160002054836040516104369291906106e6565b60405180910390a25050565b826000808673ffffffffffffffffffffffffffffffffffffffff1673ffffffffffffffffffffffffffffffffffffffff16815260200190815260200160002081905550806000808473ffffffffffffffffffffffffffffffffffffffff1673ffffffffffffffffffffffffffffffffffffffff168152602001908152602001600020819055508373ffffffffffffffffffffffffffffffffffffffff167f496faa74be7a4ce3d64cdb7173656469ef2135dc42d3e8d619bb18d0aaae03bb8460405161050e91906106cb565b60405180910390a28173ffffffffffffffffffffffffffffffffffffffff167f496faa74be7a4ce3d64cdb7173656469ef2135dc42d3e8d619bb18d0aaae03bb8260405161055c91906106cb565b60405180910390a250505050565b60008135905061057981610815565b92915050565b60008135905061058e8161082c565b92915050565b6000602082840312156105a657600080fd5b60006105b48482850161056a565b91505092915050565b600080604083850312156105d057600080fd5b60006105de8582860161056a565b92505060206105ef8582860161057f565b9150509250929050565b6000806000806080858703121561060f57600080fd5b600061061d8782880161056a565b945050602061062e8782880161057f565b935050604061063f8782880161056a565b92505060606106508782880161057f565b91505092959194509250565b600061066960188361070f565b91507f456c6f2063616e6e6f7420676f2062656c6f77207a65726f00000000000000006000830152602082019050919050565b6106a5816107dc565b82525050565b600060208201905081810360008301526106c48161065c565b9050919050565b60006020820190506106e0600083018461069c565b92915050565b60006040820190506106fb600083018561069c565b610708602083018461069c565b9392505050565b600082825260208201905092915050565b600061072b826107dc565b9150610736836107dc565b9250827fffffffffffffffffffffffffffffffffffffffffffffffffffffffffffffffff0382111561076b5761076a6107e6565b5b828201905092915050565b6000610781826107dc565b915061078c836107dc565b92508282101561079f5761079e6107e6565b5b828203905092915050565b60006107b5826107bc565b9050919050565b600073ffffffffffffffffffffffffffffffffffffffff82169050919050565b6000819050919050565b7f4e487b7100000000000000000000000000000000000000000000000000000000600052601160045260246000fd5b61081e816107aa565b811461082957600080fd5b50565b610835816107dc565b811461084057600080fd5b5056fea2646970667358221220259a97f7e6a14d8c8fcfe276f70722b9e62da4c445efffb41ab4f9095f2928bc64736f6c63430008000033",
  "immutableReferences": {},
  "source": "pragma solidity ^0.8.0;\n\ncontract EloManager {\n    mapping(address => uint256) private elos;\n\n    event EloSet(address indexed player, uint256 elo);\n    event EloIncreased(address indexed player, uint256 newElo, uint256 amount);\n    event EloDecreased(address indexed player, uint256 newElo, uint256 amount);\n\n    function setElo(address player, uint256 elo) public {\n        elos[player] = elo;\n        emit EloSet(player, elo);\n    }\n\n    function increaseElo(address player, uint256 amount) public {\n        elos[player] += amount;\n        emit EloIncreased(player, elos[player], amount);\n    }\n\n    function decreaseElo(address player, uint256 amount) public {\n        require(elos[player] >= amount, \"Elo cannot go below zero\");\n        elos[player] -= amount;\n        emit EloDecreased(player, elos[player], amount);\n    }\n\n    function updateAfterGame(\n        address playerA,\n        uint256 newEloA,\n        address playerB,\n        uint256 newEloB\n    ) public {\n        elos[playerA] = newEloA;\n        elos[playerB] = newEloB;\n        emit EloSet(playerA, newEloA);\n        emit EloSet(playerB, newEloB);\n    }\n\n    function getElo(address player) public view returns (uint256) {\n        uint256 elo = elos[player];\n        if (elo == 0) {\n            return 1500;\n        }\n        return elo;\n    }\n} ",
  "sourcePath": "/Users/khoaho/Documents/deadline.exe/RMIT/Fintech/History-Chess-Game-Back-End/contracts/EloManager.sol",
  "compiler": {
    "name": "solc",
    "version": "0.8.0+commit.c7dfd78e.Emscripten.clang"
  },
  "schemaVersion": "3.4.16",
  "updatedAt": "2025-09-29T12:00:58.397Z",
  "devdoc": {
    "kind": "dev",
    "methods": {},
    "version": 1
  },
  "userdoc": {
    "kind": "user",
    "methods": {},
    "version": 1
  }
}